:020000040800F2
:100000008006002001010008F709000881090008A6
:10001000F509000891010008F30A0008000000003B
:10002000000000000000000000000000FB090008C4
:100030009301000800000000F9090008FD0900080C
:100040001B0100081B0100081B0100081B01000820
:100050001B0100081B0100081B0100081B01000810
:100060001B0100081B0100081B0100081B01000800
:100070001B0100081B0100081B0100081B010008F0
:100080001B0100081B0100081B0100081B010008E0
:100090001B0100081B0100081B0100081B010008D0
:1000A0001B0100081B0100081B0100081B010008C0
:1000B0001B0100081B0100081B0100081B010008B0
:1000C0001B0100081B0100081B0100081B010008A0
:1000D0001B0100081B0100081B0100081B01000890
:1000E0001B0100081B0100081B010008DFF80CD0F1
:1000F00000F03CF800480047330B00088006002061
:100100000648804706480047FEE7FEE7FEE7FEE7B1
:10011000FEE7FEE7FEE7FEE7FEE7FEE7650A00080A
:10012000ED00000840EA01039B0703D009E008C97D
:10013000121F08C0042AFAD203E011F8013B00F8AC
:10014000013B521EF9D27047D2B201E000F8012BF8
:10015000491EFBD270470022F6E710B513460A4647
:1001600004461946FFF7F0FF204610BD064C074D28
:1001700006E0E06840F0010394E807009847103477
:10018000AC42F6D3FFF7B6FF540B0008740B00081F
:10019000FEE7704770470000014880687047000024
:1001A0000000002002488168027811448160704795
:1001B00000000020074810B5016841F010010160FF
:1001C000032000F067F8002000F006F800F024F8A3
:1001D000002010BD0020024070B50D4D04464FF4C4
:1001E0007A712878B1FBF0F00A490968B1FBF0F0A8
:1001F00000F0B2FB48B9102C07D200222146501E55
:1002000000F028F800206C6070BD012070BD000077
:10021000000000200C0000200C4808B5816941F066
:1002200001018161816901F001010091C16941F021
:100230008051C161C06900F080500090044841685D
:1002400021F0E06141F08061416008BD0010024092
:1002500000000140F0B40E4B1B680C46C3F30223B0
:10026000C3F10705042D00D90425191D072901D262
:10027000002300E0DB1E012606FA05F1491E21409D
:1002800099409E40761E16403143F0BC00F032BCCF
:100290000CED00E0064900F0070208684FF6FF0386
:1002A000184040EA0220034A1043086070470000EB
:1002B0000CED00E00000FA052DE9F04186B00400E5
:1002C00004D094F82902002520B108E0012006B0EE
:1002D000BDE8F08184F82852204600F057F803204A
:1002E00084F82902206800F0F4FB04F110011422C4
:1002F00088466846FFF716FF94E80F0000F0D6FB2B
:100300000227B0BB0021206800F0F1FB002001268D
:100310000DE000BF04EB401181F8296001F8280FBF
:10032000C881CD700D614D61401CC0B28D616168A6
:100330008142EFD800200FE004EB401181F82951F1
:1003400081F8280181F82B51C1F83851C1F83C518E
:10035000401CC0B2C1F8405161688142ECD81422FF
:1003600041466846FFF7DEFE94E80F0000F0A2FB6E
:1003700010B184F82972A9E784F8245084F829621E
:10038000206800F095FB0020A1E7000008B5006898
:100390000649884208D10648C16941F40001C1619B
:1003A000C06900F40000009008BD0000005C00403F
:1003B000001002402DE9F84305460078354CC0078F
:1003C00054D0E0690026C00008D4E06940F08050B5
:1003D000E061E069012600F0805000902E4801683D
:1003E000C90512D40168804641F480710160FFF7AD
:1003F000D3FE074605E000BFFFF7CEFEC01B642812
:1004000023D8D8F80000C005F6D5206A10F4407053
:1004100021D0A98801F4407181421CD0206A1F4973
:10042000012220F440700A6000220A602062C007A6
:1004300011D0FFF7B1FE074641F2883808E000BF4F
:10044000FFF7AAFEC11B414502D90320BDE8F8838E
:10045000206A8007F4D5206A696820F44070084358
:1004600020621EB1E06920F08050E06128788007AA
:1004700005D56068A96820F440400843606028788A
:10048000C00605D56068E96820F480000843606014
:100490000020DBE7001002400070004040044242B0
:1004A0002DE9F0470F46050061D0434E306800F05B
:1004B0000700B84209D2306820F0070038433060A6
:1004C000306800F00700B84251D128683B4C8107E2
:1004D00012D5400703D5606840F4E060606028787A
:1004E000000703D5606840F4605060606068A968E8
:1004F00020F0F000084360602878C00728D06868C2
:10050000012810D02168022810D0890700292EDA8E
:10051000616821F0030101436160FFF73DFE804601
:1005200041F288390DE021688903EFE78901EDE7A1
:10053000FFF732FEA0EB0801494502D90320BDE8D0
:10054000F0876068696800F00C00B0EB810FEFD1B4
:10055000306800F00700B8420BD9306820F007007F
:1005600038433060306800F00700B84201D0012005
:10057000E5E72878400705D56068E96820F4E06081
:10058000084360602878000706D56068296920F470
:10059000605040EAC100606000F018F86168084AE5
:1005A000C1F30311515CC840064908600648006861
:1005B000FFF712FE0020C2E70020024000100240B8
:1005C000440B00080C0000200400002012A185B09C
:1005D0000FC98DE80F0014A0144A006804905168F8
:1005E000134801F00C03042B10D0082B0ED1C1F3DB
:1005F0008343C9031DF803000AD5516804AAC1F357
:100600004041515C0A4A5043B0FBF1F005B07047DD
:1006100008494843FAE700000203040506070809F1
:100620000A0B0C0D0E0F101001020000001002400A
:1006300000127A0000093D002DE9F84F040070D047
:100640002078C04DC00749D06868C0F381000128F8
:1006500007D06868C0F38100022809D16868C00328
:1006600006D52868800339D560680028E7D035E0D2
:100670006068B0F5803F0BD010B1B0F5A02F11D05D
:10068000286820F480302860286820F4802002E068
:10069000286840F480302860606890B1FFF77CFDE6
:1006A00006460AE0286840F480202860F0E700BF92
:1006B000FFF772FD801B642873D828688003F7D584
:1006C0000CE0FFF769FD064605E000BFFFF764FD9B
:1006D000801B6428F0D828688003F7D420789A4ECD
:1006E00080074FF001094FF0000839D5686810F015
:1006F0000C0F07D06868C0F38100022809D1686830
:10070000C00306D42868800714D52069012808D1C1
:1007100010E02069B0B1C6F80090FFF73DFD074634
:1007200005E00AE1FFF738FDC01B0228C4D828689D
:100730008007F7D52868616920F0F80040EAC10019
:1007400028600DE0C6F80080FFF726FD074604E0AC
:10075000FFF722FDC01B022823D828688007F7D4A2
:10076000207800072CD57948A169D9B1C0F800904C
:10077000FFF712FD074604E0FFF70EFDC01B02283D
:100780000FD8686A8007F7D571484FF4FA510068AE
:10079000B0FBF1F0009000BF0098411E0091FAD22A
:1007A0000EE080E0C0F80080FFF7F6FC074604E0AA
:1007B000FFF7F2FCC01B022875D8686A8007F7D4DF
:1007C0002078400760D5E8690027C00008D4E869B0
:1007D00040F08050E861E869012700F08050009007
:1007E0005C480168C90513D40168834641F48071EF
:1007F0000160FFF7D1FC824606E000BFFFF7CCFCAA
:10080000A0EB0A0064284ED8DBF80000C005F5D53F
:10081000E06801280AD008B1052813D0286A20F022
:1008200001002862286A20F0040002E0286A40F0F3
:1008300001002862E06841F2883B98B1FFF7ACFC08
:1008400082460BE0286A40F004002862EEE700BF11
:10085000FFF7A2FCA0EB0A0159455AD8286A800785
:10086000F6D50CE0FFF798FC824605E0FFF794FC14
:10087000A0EB0A0159454CD8286A8007F6D41FB16D
:10088000E86920F08050E861E06988B36968C1F3E5
:100890008101022944D00228C6F8608004D0FFF705
:1008A0007BFC044638E034E0FFF776FC074604E0C2
:1008B000FFF772FCC01B02282BD828688001F7D4F0
:1008C000206AB0F5803F05D16868A16820F4003047
:1008D00008436860D4E908010843696821F4741189
:1008E00008436860C6F86090FFF756FC044606E0CF
:1008F00025E000BFFFF750FC001B022809D828683C
:100900008001F7D51BE000BFFFF746FC001B022863
:1009100002D90320BDE8F88F28688001F4D40EE0E6
:100920000128F7D06868226A00F48031914204D12E
:10093000616A00F47010884201D00120EAE70020CB
:10094000E8E70000001002400000424280044242FA
:100950000C0000200070004010B5401EB0F1807FF8
:1009600001D3012010BD4FF0E02460610F2160171A
:1009700000F0C0F80020A06107202061002010BD19
:10098000FEE700000D4808B5816941F01001816162
:10099000816901F010010091816941F020018161BC
:1009A000816901F020010091816941F004018161B8
:1009B000806900F00400009008BD000000100240B3
:1009C0000B4810B50949016008214160022181608E
:1009D00000218161C1610162FFF76EFC002803D034
:1009E000BDE81040FFF7D6BB10BD0000005C004022
:1009F00010000020FEE7704770477047FFF7D2BB3A
:100A000030B593B028216846FFF7A5FB14210AA84A
:100A1000FFF7A1FB00240F941094119401204FF4D0
:100A2000A02112948DE81300049002250004CDE962
:100A300007504FF4E01009906846FFF7FDFD0F20C6
:100A4000CDE90A056802CDE90C4002210AA80E94FE
:100A5000FFF726FD10200F9012940FA8FFF7AAFCB5
:100A600013B030BD0D48016841F0010101604168DB
:100A70000B4A1140416001680A4A11400160016857
:100A800021F480210160416821F4FE0141604FF4AE
:100A90001F0181600449C0030860704700100240D4
:100AA0000000FFF8FFFFF6FE08ED00E000207047B1
:100AB0000020704700B50121A0F840100021A0F8E7
:100AC0004010A0F84410A0F8501000F009F80020E1
:100AD00000BD30F8401F21F43F41018000207047E5
:100AE00030F8401F41F43F41018000207047002052
:100AF0007047FEE70907090E002804DB00F1E0203B
:100B000080F80014704700F00F0000F1E02080F83A
:100B1000141D704702E008C8121F08C1002AFAD14C
:100B200070477047002001E001C1121F002AFBD16D
:100B30007047FFF73FFBFFF763FFFFF723FFFFF768
:100B40003FFFFEE700000000000000000102030478
:100B500006070809740B00080000002010000000C0
:100B6000140B0008840B0008100000207006000021
:100B7000240B00080100000010000000000000002D
:040B80000024F40059
:04000005080000ED02
:00000001FF
