:020000040800F2
:10000000901D002099010008AF2300085522000828
:10001000AD230008D30900083928000800000000BB
:1000200000000000000000000000000001010008C6
:10003000170A0008000000004501000871240008AC
:10004000B3010008B3010008B3010008B3010008C0
:10005000B3010008B3010008B3010008B3010008B0
:10006000B3010008B3010008B3010008B3010008A0
:10007000B3010008B3010008D5090008E109000830
:10008000B3010008B3010008B3010008B301000880
:10009000B3010008B3010008B3010008B301000870
:1000A000B301000835250008B3010008B3010008BA
:1000B000B3010008B3010008B3010008B301000850
:1000C000B3010008B3010008B3010008B301000840
:1000D000B30100082D280008B3010008B30100088F
:1000E000B3010008B3010008B3010008DFF80CD029
:1000F00000F06AFA00480047B12A0008901D00206D
:10010000224B19680868B0E8F00F80F30988BFF344
:100110006F8F4FF0000080F311884EF00D0E704786
:100120000000000006480068006880F3088862B696
:1001300061B6BFF34F8FBFF36F8F00DF00BF00BF0B
:1001400008ED00E0EFF30980BFF36F8F0F4B1A68E3
:1001500020E9F00F106008B54FF0500080F31188CF
:10016000BFF34F8FBFF36F8F03F044F84FF00000E1
:1001700080F31188BDE8084019680868B0E8F00FFE
:1001800080F30988BFF36F8F704700BF28000020FD
:10019000EFF3058070470000064880470648004797
:1001A000FEE7FEE7FEE7FEE7FEE7FEE7FEE7FEE727
:1001B000FEE7FEE7ED240008ED00000840EA010339
:1001C0009B0703D009E008C9121F08C0042AFAD20D
:1001D00003E011F8013B00F8013B521EF9D27047D1
:1001E000D2B201E000F8012B491EFBD27047002279
:1001F000F6E710B513460A4604461946FFF7F0FF26
:10020000204610BD30B505462A460B4612F8010BB4
:1002100013F8014B08B1A042F8D01CB1002802D05D
:100220006D1CF1E7284630BD0FB400B58DB010A9A4
:1002300009900B9000914FF0FF300A9000200C9035
:1002400005480690054807906A4609A80F9900F0EE
:1002500055F90DB05DF814FB1905000837050008C5
:100260002DE9FF5F1D464FF0FF3BD5E90146914662
:100270005F464FF00008A9697F1C01988847296AEA
:10028000824688470028F6D1BAF1FF3F0CD024F40B
:10029000C064002E19DD600614D5BAF12B0F09D009
:1002A000BAF12D0F0ED103E0584604B0BDE8F09F1F
:1002B00044F48064A9697F1C01988847761E8246B1
:1002C000002E02DDBAF1300F03D0B9F1000F26D0B5
:1002D00032E0A969761E44F400747F1C01988847B7
:1002E0008246002E05DDBAF1780F06D0BAF1580F1C
:1002F00003D0B9F1000F10D01EE0B9F1000F02D009
:10030000B9F1100F18D1A969761E24F400747F1C6E
:10031000019888478246102002E0082000E00A2069
:10032000814609E008FB0908A969761E44F40074B7
:100330007F1C019888478246002E05DD49465046BD
:1003400000F0C7F80028EDDAE96901988847A005B0
:1003500002D46FF00100A8E7E00725D1600613D5AD
:10036000600502D5C8F1000000E0404629680A1D7A
:100370002A600968220501D5087015E0220701D519
:10038000088011E008600FE02868011D29600068FE
:10039000210502D580F8008006E0210702D5A0F8EB
:1003A000008001E0C0F8008038467EE72DE9FF5F5D
:1003B000D2E901A74FF00008916999461446DDF88B
:1003C00038B0464601988847054659EA0B0005D0E3
:1003D00009E0A169761C019888470546216A2846EC
:1003E00088470028F5D1681C03D05FEACA7005D0A1
:1003F00015E04FF0FF3004B0BDE8F09F2068011D0C
:100400002160D0F800800AE05FEACA7001D108F8E4
:10041000015BA169761C7F1E019888470546002F65
:100420001ADD681C18D0B9F1000F0DD0E81705EBE4
:10043000D060421120F01F0059F822102A1A012022
:1004400090400142E0D107E0BBF1000FDCD1216A0E
:10045000284688470028D7D0E16901988847BBF132
:10046000000F07D1002E05DD5FEACA7002D100211E
:1004700088F80010A068B84203DDBBF1000F03D07C
:1004800017B16FF00100B6E73046B4E770B5064625
:1004900002F008FA046805460A220021304600F0FE
:1004A0005BF82C6070BD30B50B4601460020202261
:1004B000012409E021FA02F59D4205D303FA02F571
:1004C000491B04FA02F52844151EA2F10102F1DCD1
:1004D00030BD3A2800D2303820F02002412A01D322
:1004E000A2F13700884201D34FF0FF30704700007F
:1004F000026811441378016018467047D1600449BE
:1005000051610449116200211161114600F07CB86B
:10051000F1040008F5050008426842B1016811F8CD
:10052000013B23B1521EC0E9001218467047012159
:10053000C160881E704742685AB1C368016843B9F8
:1005400083688B4205D0491E521CC0E9001200206E
:1005500070474FF0FF3070472DE9F04791460F4646
:1005600080460446002614F8015B2DB100F03EF8E9
:100570000068405DC007F6D12B2D02D02D2D18D07C
:10058000641E4A463946204600F0D4F927B139683E
:10059000A14201D1C7F8008071054FF002040BD5CC
:1005A0004042002803DD02F07DF90460A007BDE8A9
:1005B000F08746F48066E4E70028F8DA02F072F982
:1005C00004606FF00040F2E7064C074D06E0E0687B
:1005D00040F0010394E8070098471034AC42F6D38A
:1005E000FFF788FD243600084436000800487047AD
:1005F0000836000810B50446FFF7F8FF0068005DF4
:1006000000F0010010BD00002DE9F34F8BB04FF05A
:10061000000801F10C000C464FF0010B46460DF1AD
:10062000080A01906269012101989047051E2DD0AA
:10063000252D2CD0216A8847C0B16269012101981B
:100640009047216A88470028F7D1411E62690198C6
:10065000904700E0761CA1690B988847216A88477B
:100660000028F7D1E1690B988847DBE7A1690B986F
:1006700088470746A84201D1761CD3E7E1690B9869
:1006800088477F1C02D1B8F1000F6FD046E10027E8
:1006900062693D463946019890472A2804D162692B
:1006A0000121019890470125DFF8849262690121B8
:1006B00001989047A0F130010A290AD24F45E5DCA4
:1006C00007EB870100EB4107303FDFD445F0100511
:1006D000ECE7E90601D46FF000476C280AD04C28FB
:1006E00014D0682815D06A280DD074281CD07A2818
:1006F0001AD01DE062690121019890476C2802D050
:1007000045F0040514E045F002050DE045F0200534
:100710000AE06269012101989047682802D045F0FB
:10072000080505E045F400656269012101989047DC
:10073000C4E9015765283DD019DC58287AD00CDC73
:10074000452837D004DC252826D0412831D131E096
:1007500046282FD047282CD12CE05B2877D0612861
:1007600028D063287CD0642823D15AE0D0E06F28B9
:1007700048D008DC66281DD067281BD0692821D006
:100780006E2816D127E0702845D0732868D07528C8
:1007900047D078280DD14DE0A1690B9888470546D0
:1007A00025283FF469AFE1690B9888476D1C3FF439
:1007B0006AAFB3E023466A466FF001000B99AFF3CE
:1007C00000809EE045F040006060A80723464FF09F
:1007D000000236D43EE0E8077FF447AF2068011DF1
:1007E00021600068290501D506701BE7290701D59E
:1007F000068017E7A90703D5F117C0E9006111E7E3
:1008000006600FE745F040006060A80723464FF000
:10081000080216D41EE040F60E0125EA01006060D1
:1008200016E045F040006060A80723464FF00A023A
:1008300007D40FE045F040006060A80708D52346C4
:1008400010226FF001000B99AFF3008059E007E030
:10085000234610226FF001000B99FFF701FD50E0D5
:100860004FF000094F464B46632802D05B2806D064
:1008700040E0E80601D40120A06001273AE0626967
:100880000121019890475E2805D14FF00109626966
:10089000494601989047216939B900210A465346D3
:1008A00043F82120491C0829FADBB0B3216969B952
:1008B000C11700EBD16253110AEB830122F01F0232
:1008C000821A01200B68904003430B60626901218A
:1008D000019890475D28E8D1B9F1000F09D00020B8
:1008E000514651F82020D24341F82020401C0828CE
:1008F000F7DB02AB224600976FF001000B99FFF780
:1009000055FD00280CDA401C08D1BBF1000F05D0C2
:100910004FF0FF300DB0BDE8F08FFFE74046F9E73C
:10092000E90701D108F1010806444FF0000B79E610
:10093000CCCCCC0C2DE9F05F824600780027154620
:100940008B460AF10104B946302801D09DB113E06D
:1009500014F8010B0127782803D0582801D045B19D
:100960000AE00DB1102D07D10027102514F8010B56
:1009700002E0082500E00A250026B0460EE005FB4F
:10098000080005FB06F1012701EB10461FFA80F86D
:10099000B6F5803F00D3B94614F8010B2946FFF79E
:1009A00098FD0028EBDABBF1000F05D00FB1641EF3
:1009B00000E05446CBF80040B9F1000F06D001F03A
:1009C00071FF02210160C81EBDE8F09F48EA0640A1
:1009D000FAE7FEE7014800F025BC0000D40B002038
:1009E000014800F01FBC0000180C002030B590F842
:1009F00040500124AC40C56B6C6004686360436880
:100A0000102B036803D099600068C26030BD9A6003
:100A10000068C16030BD704770470000F0B59BB002
:100A2000642102A8FFF7E3FB1E4C00201421C4F848
:100A30000100C4F80500A4F8090004F10B00074602
:100A4000FFF7D5FB04F11F0014210646FFF7CFFB8B
:100A500004F1330064210546FFF7C9FB12A104F13C
:100A6000AB00FFF7CFFB02AB621C11A1FFF7DCFB71
:100A700002A8FFF70BFDC0B2207000F031F818B1EA
:100A80004FF0FF301BB0F0BD20783346CDE9005069
:100A90003A46611C0BA001F0D1FE00F0D9FA00200B
:100AA000F0E70000940000202B434D54493A000029
:100AB000252A5B5E3A5D3A20255B5E2C5D2C257312
:100AC00000000000534D5320494E464F3A25732CE9
:100AD00025732C25732C25732C25640D0A0000002A
:100AE00010B59AB0642101A8FFF781FB4FF47A702A
:100AF00002F002F8174818A1027801A801F0AEFE32
:100B000001A800F0DBFA4FF0FF3400281FD100F0FD
:100B100053F918B113A001F091FE18E00D4816A189
:100B2000AB30FFF76FFB90B10A493331A1F12803D5
:100B3000A1F11402009112A1FFF776FB642101A834
:100B4000FFF755FB19A000F0B9FA002800D02046A5
:100B50001AB010BD9400002041542B434D47523D24
:100B600025640A004661696C20746F2072656164B7
:100B700020534D53200D0A002B434D47523A00009D
:100B8000252A5B5E3A5D3A20255B5E2C5D2C255B59
:100B90005E2C5D2C252A5B5E0D0A5D252A5B0D5DB2
:100BA000252A5B0A5D255B5E0D5D000041542B43E9
:100BB0004D47443D312C340A0000000070B53FA180
:100BC0003F48FFF71FFB3F4C012520B125703EA099
:100BD00001F034FE50E040A13948FFF713FB20B18B
:100BE00040A001F02BFE657046E043A13448FFF7BA
:100BF00009FB20B143A001F021FEA5703CE046A115
:100C00002F48FFF7FFFA70B1642001F075FF42A191
:100C10002B48FFF7F7FA2B4A41A1121DFFF704FBFF
:100C200042A0616826E045A12548FFF7EBFA70B1C4
:100C3000642001F061FF41A12148FFF7E3FA214A56
:100C400037A10C32FFF7F0FA3EA0E16812E041A1B3
:100C50001B48FFF7D7FA88B1642001F04DFF3DA192
:100C60001748FFF7CFFA174A2DA10832FFF7DCFA31
:100C70003AA0A16801F0E2FD00F0EAF93BA11048BA
:100C8000FFF7C0FA48B1642001F036FF0C4939A0E3
:100C900001F0D4FD00F0E8F90DE03BA10848FFF7B2
:100CA000B1FA40B1642001F027FF054938A001F0F6
:100CB000C5FDFFF7B3FE002070BD0000524459008F
:100CC0003F010020000000205265636976652052D4
:100CD00044590D0A0000000043616C6C20526561AC
:100CE000647900005265636976652043616C6C200D
:100CF00052656164790D0A00534D53205265616459
:100D00007900000052656369766520534D53205287
:100D1000656164790D0A00002B4346554E3A000088
:100D2000252A5B5E3A5D3A20256400007374617485
:100D3000655F4346554E3A25640D0A002B435245E4
:100D4000473A000073746174655F47534D3A2564F8
:100D50000D0A00002B43475245473A0073746174F3
:100D6000655F475052533A25640D0A002B434C49A6
:100D7000503A00007374725F47534D5F52494E47BB
:100D80003A25730D0A0000002B434D54493A0000E8
:100D90007374725F47534D5F534D533A25730D0A79
:100DA0000000000010B54FF400610248FFF71FFA81
:100DB000002010BD3F01002070B500F03FFC04464C
:100DC0004FF47A7513E00FA10F48FFF71BFA08B133
:100DD000002070BD0DA10C48FFF714FA20B90EA138
:100DE0000948FFF70FFA10B14FF0FF3070BD00F067
:100DF00025FC001BA842E6D30AA001F01FFD6FF0FE
:100E0000010070BD4F4B00003F0100202B434D45BA
:100E1000204552524F523A002B434D5320455252D7
:100E20004F523A00474554204F4B205469656D207E
:100E30006F75740D0A00000070B54FF47A7505E007
:100E400000F062F90446284601F056FE002CF7D166
:100E50002EA000F033F901462DA001F0EFFC0A208E
:100E600001F04AFE30A000F029F9014630A001F05F
:100E7000E5FC0A2001F040FE33A000F01FF9014616
:100E800034A001F0DBFC0A2001F036FE37A000F0B0
:100E900015F9014639A001F0D1FC0A2001F02CFE21
:100EA0003CA000F00BF901463DA001F0C7FC0A2070
:100EB00001F022FE40A000F001F9014641A001F03E
:100EC000BDFC0A2001F018FE44A000F0F7F801462E
:100ED00045A001F0B3FC0A2001F00EFE48A000F08E
:100EE000EDF801464AA001F0A9FC642001F004FEDF
:100EF0004DA000F0E3F801464FA001F09FFC6420F4
:100F000001F0FAFD00F0A4F8002070BD41540A0081
:100F1000415420436F6D6D616E6431205253503ADD
:100F200025640D0A00000000415445300A0000000D
:100F3000415420436F6D6D616E6432205253503ABC
:100F400025640D0A0000000041542B434D45453DEA
:100F5000310A0000415420436F6D6D616E6433208F
:100F60005253503A25640D0A0000000041542B49A9
:100F700050523D3131353230300A00004154204367
:100F80006F6D6D616E6434205253503A25640D0AC2
:100F90000000000041542B435245473D310A0000F8
:100FA000415420436F6D6D616E6435205253503A49
:100FB00025640D0A0000000041542B434752454769
:100FC0003D310A00415420436F6D6D616E643620DF
:100FD0005253503A25640D0A0000000041542B433F
:100FE0004C49503D310A0000415420436F6D6D6102
:100FF0006E6437205253503A25640D0A00000000F9
:1010000041542B434D47443D312C340A000000002D
:10101000415420436F6D6D616E6438205253503AD5
:1010200025640D0A0000000041542B434D47463D06
:10103000312C340A00000000415420436F6D6D6173
:101040006E6439205253503A25640D0A00000000A6
:1010500010B5044800F03DFFFFF7A4FE00F046F88D
:10106000002010BD940B002010B509A10A48FFF71D
:10107000C9F8094A09A1143AFFF7D6F806490BA0A6
:10108000143901F0DBFBFFF7E3FF002010BD000087
:101090002B434C49503A00003F010020252A5B5E5B
:1010A0003A5D3A20255B5E2C5D00000053545220CF
:1010B00043414C4C3A25730D0A00000070B50024E2
:1010C0000546224601E0521C641CA85C0028FAD1A7
:1010D000FFF7BEFFA2B22946034801F09BF8BDE826
:1010E0007040FFF769BE0000940B002010B54FF46C
:1010F00000620349034801F03FF8002010BD0000E2
:101100003F010020940B002010B507A0FFF7D6FF89
:101110000446014605A001F091FB14B14FF0FF30E9
:1011200010BD002010BD000041540A0054657374C6
:1011300020436F6E6E656374696F6E3A25640D0AA5
:101140000000000010B590F821100022022905D0FF
:101150000421816380F82020012010BD01680B6804
:1011600023F00E030B6001680B6823F001030B6092
:1011700090F84030C46B012101FA03F3636080F8FA
:10118000211080F82020104610BD000010B590F806
:1011900021100024022903D00421816301243DE0B1
:1011A00001680A6822F00E020A6001680A6822F0EB
:1011B00001020A601A4A0168914201D1012121E02D
:1011C000174A1432914201D110211BE0144A2832EF
:1011D000914201D1891515E0114A3C32914201D169
:1011E00089140FE00E4A5032914202D14FF48031FF
:1011F00008E00B4A6432914202D14FF4801101E0C1
:101200004FF08071064A083A5160012180F82110A0
:10121000002180F82010416B01B18847204610BDA5
:10122000080002402DE9F05FC16B0C6801680B6893
:10123000D0F840C0042202FA0CF2494DDFF824A194
:10124000494E4A4FDFF828B1DFF828E122422CD07E
:101250005A072AD50A68920603D40A6822F00402C3
:101260000A600168A94201D1042219E0514501D167
:10127000402215E0B14202D14FF4806210E0B94241
:1012800002D14FF480420BE0594502D14FF4802245
:1012900006E0714502D14FF4800201E04FF0806218
:1012A0002F4908394A60C16A3BE04FF0020808FA4A
:1012B0000CF818EA040F4FF000094FF0010235D086
:1012C0005FEA837832D50B689B0605D40B6823F060
:1012D0000A030B6080F821200168A94201D1022293
:1012E00019E0514501D1202215E0B14202D14FF45D
:1012F000007210E0B94202D14FF400520BE05945A0
:1013000002D14FF4003206E0714502D14FF40012D1
:1013100001E04FF00072124908394A6080F82090CD
:10132000816A00291AD0BDE8F05F0847082505FA50
:101330000CF5254212D01B0710D50B6823F00E03C5
:101340000B6090F84010C36B02FA01F159608263A0
:1013500080F8212080F82090016BE2E7BDE8F09F43
:10136000080002401C0002403000024044000240DD
:10137000580002406C00024030B528B308C8134939
:1013800014221944B1FBF2F18900C1631049816351
:10139000022141771A6843F6F0718A43D0E90014BC
:1013A0002143D0E902452C43214304692143446988
:1013B00021438469214311431960002141630122C3
:1013C00042770177084630BD012030BDF8FFFDBFF0
:1013D0000000024070B5044690F820000025012866
:1013E0000CD0012084F8200094F821600020012E08
:1013F00006D084F820000225284670BD022070BD6A
:10140000022684F82160A0632068066826F00106A1
:1014100006602046FFF7EAFAE06A002820680168C3
:1014200002D041F00E0106E021F0040101602068C5
:10143000016841F00A0101602068016841F0010182
:101440000160D9E72DE9F84FDFF8B891002409F1E0
:10145000040A0AF1040B23460F270BF1040EC9E01E
:101460000125A5402A40AA427DD1674ED1F804C08B
:10147000ACEB0608B44532D014DCBCF1030F3AD013
:1014800009DCBCF1000F2AD0BCF1010F1CD0BCF16B
:10149000020F31D11DE0BCF1110F17D0BCF1120FBA
:1014A0002AD119E0B8F5881F19D006DCB8F5803FBD
:1014B00015D0B8F5801F1FD111E0B8F5001F0ED070
:1014C000B8F5041F18D10AE0CB6815E0CB681B1DE6
:1014D00012E0CB6808330FE0CB680C330CE08B686C
:1014E0002BB1012B4FF0080303D0456104E0042326
:1014F00002E0056100E00023FF2A01D8064601E072
:1015000000F104064FEA840501D9A5F12005D6F8BB
:10151000008007FA05FC28EA0C0803FA05F548EAFA
:101520000508C6F800804D68ED0062D5374DAE69FC
:1015300046F00106AE61AD6924F0030605F0010531
:101540000095334D06EB050CDCF80850A607360F66
:1015500007FA06F825EA0805DFF8B880404503D108
:101560004FF0000817E044E0DFF8AC80404502D1BE
:101570004FF001080FE0DFF8A480404502D14FF0A2
:10158000020808E0DFF89880404502D14FF00308D8
:1015900001E04FF0040808FA06F848EA0508CCF81C
:1015A00008804D68D9F80060ED034D4601D516431B
:1015B00000E096432E604D68DAF80060AD035546B2
:1015C00001D5164300E096432E604D68DBF80060BD
:1015D000ED025D4601D5164300E096432E604D684E
:1015E000DEF80060AD02754601D5164300E0964373
:1015F0002E60641C0D682A46E5407FF431AFBDE8DB
:10160000F88F00000004014000001110001002409B
:101610000000014000080140000C014000100140A2
:1016200000140140C2680A4201D041617047016163
:1016300070470AB1016170470904FBE701488068FF
:10164000704700001C0000200248816802781144A5
:10165000816070471C000020074810B5016841F008
:1016600010010160032000F095F8002000F006F85A
:1016700000F03EF8002010BD0020024000B50146F9
:1016800087B00022192000F065F8192000F054F806
:101690001348816941F400618161806905A900F402
:1016A00000600690684600F01DF900F04BF90D4906
:1016B0000D4AB0FBF1F10D48491E0260416040F255
:1016C000E7320021C0E90321816000F013FB10B173
:1016D000012007B000BD054800F028FBF9E7000035
:1016E0000010024040420F00002C01405C0C002022
:1016F0000F4808B5816941F001018161816901F0FC
:1017000001010091C16941F08051C161C0690022AD
:1017100000F0805000900F21901E00F01BF805484B
:10172000416821F0E06141F00071416008BD0000B6
:101730000010024000000140002809DB00F01F02F9
:10174000012191404009800000F1E020C0F8001123
:1017500070470000F0B40E4B1B680C46C3F3022325
:10176000C3F10705042D00D90425191D072901D24D
:10177000002300E0DB1E012606FA05F1491E214088
:1017800099409E40761E16403143F0BC01F07AB875
:101790000CED00E0064900F0070208684FF6FF0371
:1017A000184040EA0220034A1043086070470000D6
:1017B0000CED00E00000FA052DE9F0470F460500AA
:1017C00061D0434E306800F00700B84209D230685B
:1017D00020F0070038433060306800F00700B8425E
:1017E00051D128683B4C810712D5400703D560686A
:1017F00040F4E06060602878000703D5606840F43A
:10180000605060606068A96820F0F0000843606084
:101810002878C00728D06868012810D021680228DD
:1018200010D0890700292EDA616821F003010143F5
:101830006160FFF703FF804641F288390DE02168BF
:101840008903EFE78901EDE7FFF7F8FEA0EB080158
:10185000494502D90320BDE8F0876068696800F057
:101860000C00B0EB810FEFD1306800F00700B842F8
:101870000BD9306820F0070038433060306800F042
:101880000700B84201D00120E5E72878400705D5D8
:101890006068E96820F4E060084360602878000729
:1018A00006D56068296920F4605040EAC100606094
:1018B00000F058F86168084AC1F30311515CC84050
:1018C0000649086006480068FFF7D8FE0020C2E716
:1018D00000200240001002406C3500081800002073
:1018E000200000200F2202600C4A536803F003031B
:1018F0004360536803F0F0038360536803F4E063CC
:10190000C36052684FF4E06303EAD2020261044804
:10191000006800F0070008607047000000100240F7
:10192000002002400448054900684968044AC1F3A0
:101930000221515CC840704718000020001002408E
:101940007C3500080448054900684968044AC1F329
:10195000C221515CC84070471800002000100240AE
:101960007C35000812A185B00FC98DE80F0014A0C6
:10197000144A006804905168134801F00C03042BCA
:1019800010D0082B0ED1C1F38343C9031DF8030007
:101990000AD5516804AAC1F34041515C0A4A504338
:1019A000B0FBF1F005B0704708494843FAE7000082
:1019B00002030405060708090A0B0C0D0E0F101090
:1019C000010200000010024000127A0000093D00F0
:1019D0002DE9F84F040070D02078C04DC00749D0E1
:1019E0006868C0F38100012807D06868C0F38100EF
:1019F000022809D16868C00306D52868800339D554
:101A000060680028E7D035E06068B0F5803F0BD013
:101A100010B1B0F5A02F11D0286820F480302860D4
:101A2000286820F4802002E0286840F48030286094
:101A3000606890B1FFF702FE06460AE0286840F4AD
:101A400080202860F0E700BFFFF7F8FD801B6428C6
:101A500073D828688003F7D50CE0FFF7EFFD064642
:101A600005E000BFFFF7EAFD801B6428F0D8286876
:101A70008003F7D420789A4E80074FF001094FF089
:101A8000000839D5686810F00C0F07D06868C0F3FB
:101A90008100022809D16868C00306D4286880073D
:101AA00014D52069012808D110E02069B0B1C6F82A
:101AB0000090FFF7C3FD074605E00AE1FFF7BEFD12
:101AC000C01B0228C4D828688007F7D52868616938
:101AD00020F0F80040EAC10028600DE0C6F8008060
:101AE000FFF7ACFD074604E0FFF7A8FDC01B022886
:101AF00023D828688007F7D4207800072CD57948A8
:101B0000A169D9B1C0F80090FFF798FD074604E03D
:101B1000FFF794FDC01B02280FD8686A8007F7D52D
:101B200071484FF4FA510068B0FBF1F0009000BF2B
:101B30000098411E0091FAD20EE080E0C0F80080CB
:101B4000FFF77CFD074604E0FFF778FDC01B022885
:101B500075D8686A8007F7D42078400760D5E869AF
:101B60000027C00008D4E86940F08050E861E869C7
:101B7000012700F0805000905C480168C90513D42B
:101B80000168834641F480710160FFF757FD82468A
:101B900006E000BFFFF752FDA0EB0A0064284ED814
:101BA000DBF80000C005F5D5E06801280AD008B1CF
:101BB000052813D0286A20F001002862286A20F046
:101BC000040002E0286A40F001002862E06841F267
:101BD000883B98B1FFF732FD82460BE0286A40F05F
:101BE00004002862EEE700BFFFF728FDA0EB0A0122
:101BF00059455AD8286A8007F6D50CE0FFF71EFD34
:101C0000824605E0FFF71AFDA0EB0A0159454CD8C2
:101C1000286A8007F6D41FB1E86920F08050E86197
:101C2000E06988B36968C1F38101022944D00228C0
:101C3000C6F8608004D0FFF701FD044638E034E0C8
:101C4000FFF7FCFC074604E0FFF7F8FCC01B022886
:101C50002BD828688001F7D4206AB0F5803F05D1E1
:101C60006868A16820F4003008436860D4E908017E
:101C70000843696821F4741108436860C6F86090ED
:101C8000FFF7DCFC044606E025E000BFFFF7D6FCCA
:101C9000001B022809D828688001F7D51BE000BF87
:101CA000FFF7CCFC001B022802D90320BDE8F88F07
:101CB00028688001F4D40EE00128F7D06868226A11
:101CC00000F48031914204D1616A00F470108842BE
:101CD00001D00120EAE70020E8E700000010024000
:101CE0000000424280044242180000200070004080
:101CF0007047704710B5040003D094F83D0010B150
:101D000007E0012010BD002084F83C00204600F0D0
:101D10000CF8022084F83D00211D206800F010FC22
:101D2000012084F83D00002010BD70470168CA689A
:101D300042F00102CA600068816801F007010629CB
:101D400003D0016841F00101016000207047704735
:101D500070B50446006801694FF00005C943890762
:101D600015D4C168C943890711D4E91E0161012056
:101D70002077206880698007204602D0FFF7E7FFC0
:101D800004E000F098F8204600F096F825772068E7
:101D90000169C943490717D4C168C943490713D426
:101DA0006FF004010161022020772068806910F43F
:101DB000407F204602D0FFF7CAFF04E000F07BF826
:101DC000204600F079F8257720680169C9430907A2
:101DD00016D4C168C943090712D46FF00801016124
:101DE000042020772068C0698007204602D0FFF7D2
:101DF000AEFF04E000F05FF8204600F05DF82577C4
:101E000020680169C943C90617D4C168C943C90616
:101E100013D46FF010010161082020772068C06999
:101E200010F4407F204602D0FFF791FF04E000F05D
:101E300042F8204600F040F8257720680169C94340
:101E4000C90708D1C168C943C90704D1891E016106
:101E5000204600F033F820680169C943090609D417
:101E6000C168C943090605D46FF0800101612046AD
:101E7000FFF73EFF20680169C943490609D4C168DC
:101E8000C943490605D46FF040010161204600F0C6
:101E90001FF820680169C94389060BD4C168C9438A
:101EA000890607D46FF0200101612046BDE870402B
:101EB000FFF71FBF70BD70477047000000680349FF
:101EC000884201D1FFF7C0BB70470000002C0140E1
:101ED000704710B504460068416994F83920C1F391
:101EE000C011212A0BD151B1416921F0800141611A
:101EF000206B08B1FFF726F9204600F0B5FB2068FB
:101F0000416994F83A20C1F38011222A0BD151B1D2
:101F1000416921F040014161606B08B1FFF712F99E
:101F2000204600F093FB002010BD704770B502689A
:101F300004461068D168536910F00F0F50D003F0B9
:101F4000010501F4907635435DD0C20705D0CA057E
:101F500003D5E26B42F00102E263420705D5DA07DE
:101F600003D0E26B42F00202E263820705D5DA0792
:101F700003D0E26B42F00402E263020705D5DA0700
:101F800003D0E26B42F00802E263E26B002A33D036
:101F9000800604D5880602D5204600F06EFB206836
:101FA0004069E16BC0F38010090700D428B32046D4
:101FB00000F04CFB2068416949061AD5416921F0BF
:101FC00040014161606BA0B11B494163606BFFF749
:101FD000DDF8002810D0606B416BBDE87040084709
:101FE000830610D58B060ED52046BDE8704000F064
:101FF00044BB2046FFF799FF70BD2046FFF795FFD1
:102000000020E06370BD030606D50B0604D520460C
:10201000BDE8704000F0D8BB4006F3D54806F1D5C6
:10202000D168204621F04001D160202184F8391088
:1020300000F00FF970BD0000AD25000870B5040078
:1020400004D094F83900002510B106E0012070BDDD
:1020500084F83850204600F023F8242084F8390012
:102060002068C16821F40051C160204600F050FB97
:102070002068016921F4904101612068416921F0E3
:102080002A0141612068C16841F40051C160E563E3
:10209000202084F8390084F83A00002070BD000048
:1020A000F0B585B000240646009401940294039490
:1020B00000682C49884253D12B48816941F4804102
:1020C0008161816901F480410491816941F00401D9
:1020D00081618069254D00F0040004904FF4007088
:1020E0000090022001900320039069462846FFF7E4
:1020F000A9F92815CDE90004694628460294FFF79E
:10210000A1F91C4D1A48802701C5102091C5194816
:1021100045F810496C61AC61EC61FFF72DF908B12D
:10212000FEF77AFC35636E62124D11484435143067
:10213000C5E90004C5E902472C616C61AC61284621
:10214000EC61FFF719F908B1FEF766FC7563002230
:10215000052125206E62FFF7FDFA2520FFF7ECFA36
:1021600005B0F0BD003801400010024000080140F9
:1021700044000240D40B0020F8B5044690F83A0021
:1021800020283CD1C1B3BAB394F83800012836D026
:10219000012084F83800A162A2850025E563222091
:1021A00084F83A00636B17489862636B1648D862EC
:1021B000636B16481863606B134645630846666B8D
:1021C000216802463046091DFFF704F920680168BE
:1021D0004168009184F83850C16841F48071C16051
:1021E0002068416941F0010141612068416941F085
:1021F000400141610020F8BDFFE70120FBE702201C
:10220000F9E700000726000843260008BD2500085E
:102210007047704790F83930202B18D1A9B1A2B17E
:1022200090F83830012B12D001628284C2840021E0
:10223000C163212280F8392080F838100068C16815
:1022400041F08001C16000207047012070470220EA
:1022500070477047FEE7000007490968C9070AD0C0
:10226000054980390968C90705D04FF060410A68FF
:10227000002AFCD008707047800E00E00D4808B5B9
:10228000416941F0010141614069002200F0010013
:10229000009005210E20FFF75DFA0E20FFF74CFAA3
:1022A000002205210F20FFF755FABDE808400F2056
:1022B000FFF742BA0010024010B58EB01C220B4945
:1022C0006846FDF77BFF0021684600F021FC084CC2
:1022D00006491C2220601C3107A8FDF76FFF002172
:1022E00007A800F015FC60600EB010BD3435000882
:1022F0001000002070B586B000241C4800940194A2
:1023000002940394816941F010018161816901F0B7
:1023100010010491816941F020018161816901F01E
:1023200020010491816941F004018161816901F01A
:1023300004010491816941F00801816180690C4EBA
:1023400000F008004FF40055049000222946304662
:10235000FFF76FF901200095CDE9010402200390F9
:1023600069463046FFF76EF806B070BD00100240B7
:10237000001001400C4810B50A4901604FF4E131EA
:102380004160002181600C22C160C0E904128161BA
:10239000C161FFF753FE002803D0BDE81040FEF7EF
:1023A0003BBB10BD00380140940B0020FEE7704796
:1023B0000FA000F043FAFEF74BFE14A000F03EFA27
:1023C0001B4F1C4D1C4E0024387801280AD1287858
:1023D000012807D13078012804D13C702C7034706A
:1023E000FEF72AFDFEF7EAFB012000F085FBEBE794
:1023F0004F4B20537461727444656661756C7454FC
:1024000061736B3E3E3E0D0A000000005761697427
:10241000696E6720666F722047534D20746F20737A
:10242000656E64205244592E2E2E0D0A00000000C5
:1024300000000020010000200200002006A000F0A3
:10244000FDF90A4D4FF4005421462846FFF7EAF8FB
:10245000642000F051FBF7E74F4B20537461727416
:102460005461736B30323E3E3E0D0A000010014055
:1024700010B5502080F31188BFF34F8FBFF36F8FDB
:1024800000F092FF18B104494FF08050086000201E
:1024900080F3118810BD000004ED00E030B58FB06E
:1024A00028216846FDF7A3FE14210AA8FDF79FFE28
:1024B00001210804CDE900100024029402250491B2
:1024C000CDE907504FF4E01009906846FFF780FA15
:1024D0000F20CDE90A056802CDE90C4002210AA8C7
:1024E0000E94FFF769F90FB030BD00000D48016888
:1024F00041F00101016041680B4A114041600168EF
:102500000A4A11400160016821F48021016041689C
:1025100021F4FE0141604FF41F0181600449C003B2
:1025200008607047001002400000FFF8FFFFF6FE51
:1025300008ED00E00148FFF70BBC00005C0C002038
:10254000F0B50268164B174C174D4FF08047984274
:1025500005D0B84203D0A04201D0A84203D122F056
:1025600070064A683243984205D0B84203D0A04270
:1025700001D0A84203D122F44074CA6822434C69B6
:1025800022F08002224302608A68C2620A68826284
:10259000984201D10969016301214161F0BD000048
:1025A000002C0140000400400008004010B5406AC3
:1025B0000021C185C184FFF7B8FC10BD70B5446A25
:1025C0002068406994F83910C0F3C0100025212913
:1025D00004D118B1E584204600F046F8206840692F
:1025E00094F83A10C0F38010222904D118B1E5857F
:1025F000204600F02BF8E06B40F01000E06320462E
:10260000FFF793FC70BD10B50146406A0968096880
:10261000890613D40021C1850168CA6822F480723A
:10262000CA6001684A6922F001024A6101684A6988
:1026300022F040024A61202180F83A10FFF7E8FDBD
:1026400010BD10B5406AFFF7E4FD10BD0168CA680F
:1026500022F49072CA6001684A6922F001024A615C
:10266000202180F83A1070470168CA6822F0C00241
:10267000CA60202180F83910704710B590F83A10E0
:10268000222901D0022010BD8168B1F5805F11D0F0
:102690000169002901681FD0496801F07F03816A40
:1026A0004A1C82620B70C18D491E0904090CC18548
:1026B00018D02BE00269816A002A0268526805D0AE
:1026C000D2B20A80816A491C8162ECE7C2F3080237
:1026D0000A80816A891CF7E74A68816A4B1C836219
:1026E0000A70E0E70168CA6822F02002CA60016847
:1026F000CA6822F48072CA6001684A6922F0010245
:102700004A61202180F83A10FFF782FD002010BDB9
:102710002DE9F041044600680169E26821F4405166
:10272000114301612169A068084361690843216878
:10273000CA6841F20C639A430243CA602068416947
:10274000A26921F44071114341611E49206864254A
:102750003226884202D1FFF7F5F801E0FFF7E2F8F0
:1027600000EBC00101EB001160686FF018078000FA
:10277000B1FBF0F2B2FBF5F2B1FBF0F37A4303EBFD
:102780008202B1FBF0F306EB0212B2FBF5F2B3FBEF
:10279000F5F302F0F00202EB0312B1FBF0F3B1FB30
:1027A000F0F0B0FBF5F0784303EB800006EB00108F
:1027B000B0FBF5F0216800F00F0010448860BDE820
:1027C000F08100000038014090F83910212901D033
:1027D000022070478168B1F5805F016A0BD04A1C06
:1027E0000262026809785160C18C491E0904090C13
:1027F000C1840ED017E009880268C1F30801516056
:1028000001690029016A02D0491C0162ECE7891CB8
:10281000FBE70168CA6822F08002CA600068C168EC
:1028200041F04001C1600020704700000148FFF7FF
:102830007DBB0000940B0020FEE700000FB4054BA9
:1028400010B503A9044A029800F040F810BC5DF8E6
:1028500014FB0000912A0008880000200FB4084BE8
:1028600010B504A902AA039800F030F8044602A9A2
:10287000002000F007F9204610BC5DF814FB0000B2
:10288000852A00080907090E002804DB00F1E02072
:1028900080F80014704700F00F0000F1E02080F88D
:1028A000141D7047004870479000002002E008C8DF
:1028B000121F08C1002AFAD170477047002001E0BA
:1028C00001C1121F002AFBD1704700002DE9FF4F04
:1028D0008BB09A460F460546002606E025280BD009
:1028E00052460D9990476D1C761C28780028F5D12A
:1028F0000FB03046BDE8F08F0024A04601226049A9
:1029000000E0044315F8013F203B02FA03F00842BF
:10291000F7D128782E2817D115F8010F44F00404B8
:102920002A280ED06FF02F022878A0F13001092953
:102930000AD808EB880102EB410100EB01086D1C8D
:10294000F2E757F8048B6D1C287869283ED006DC26
:102950000028CDD063280BD0642804D136E073283A
:1029600010D075284BD052460D999047761C85E0C3
:1029700017F8040B8DF8000000208DF80100E946DF
:10298000012003E057F8049B4FF0FF3061074FF040
:10299000000401D40AE0641C44450DDA8442FADBE9
:1029A00019F804100029F6D106E0641C8442FCDB0F
:1029B00019F804100029F8D1264404E019F8010B95
:1029C00052460D999047641EF8D257E001CF4FF060
:1029D0000A0B002802DA40422D2102E0210504D52D
:1029E0002B218DF82410012103E0E10705D02021DF
:1029F000F7E70DF1200908910CE00021F9E701CF7C
:102A00004FF00A0BF9E75946FDF74DFD01F1300291
:102A100009F8012D0028F6D1ADEB090000F1200BDB
:102A2000600701D44FF00108D84502DDA8EB0B0088
:102A300000E000208046002406E009A85246005D20
:102A40000D999047641C761C08988442F5DB04E0DD
:102A5000302052460D999047761CB8F10001A8F13C
:102A60000108F5DC05E019F8010B52460D99904775
:102A7000761CBBF10001ABF1010BF4DC6D1C34E7FB
:102A8000092801000A68531C0B6010707047000091
:102A9000054A914202D0054A914201D1FFF7DCBBC1
:102AA0004FF0FF3070470000880000208C000020AD
:102AB000FEF7D2FDFFF7F2FCFFF71CFCFFF7DEFB91
:102AC000FFF758FC03A0FFF7B9FEFFF7F5FB00F096
:102AD0001AF8FEE74F4B207072696E7466207265BB
:102AE0006164793E3E3E0D0A000000000146002070
:102AF000842900D0C81C704710B500B9012000F02F
:102B000015FB002010BD10B500F036FB002010BDF5
:102B10007FB50D4604464169B0F9080081B1A1694D
:102B200071B1FFF7E3FFD4E905128DE80700D4E99E
:102B300000102B46226900F00CFC039004B070BD1D
:102B4000FFF7D4FF03A9CDE90001208A2B4682B20A
:102B5000D4E9001000F0D0FB012801D00020EDE7FF
:102B60000398EBE72DE9F041184C0F4605466669DE
:102B70002068001D00F016FA38B9206890F82C1073
:102B800001208840A1698143A161681C07D137B148
:102B90002168BDE8F0410E48091D00F047BA2068E1
:102BA0003544B5424560216805D2A068BDE8F041D2
:102BB000091D00F023BA6068091D00F01FFA206BA0
:102BC000854200D22563BDE8F08100002800002086
:102BD000780D00202DE9F041054600F033FA2E4C27
:102BE0002069401C206120682C4F10B1E06940B37F
:102BF0002DE025602069012829D1002606EB8600FA
:102C000007EB800000F0ECF9761C072EF6D3234882
:102C10008C3000F0E5F92148A03000F0E1F91F48C0
:102C2000B43000F0DDF91D48C83000F0D9F91B4878
:102C3000DC3000F0D5F919488C3060601430A060A9
:102C400005E02068E96AC06A884200D82560E06A29
:102C5000401CE062E96A0120A26988401043A0613B
:102C600001EB810007EB8000291D00F0DFF900F087
:102C700009FAE06900280CD02068E96AC06A884235
:102C800007D207494FF080500860BFF34F8FBFF362
:102C90006F8FBDE8F0810000280000209C0C002010
:102CA00004ED00E010B5044690F8510058B1012839
:102CB0000CD002280FD0502080F31188BFF34F8F23
:102CC000BFF36F8FFEE7206B00F0F0F92046BDE800
:102CD000104000F0EBB910BD10484FF440614207BE
:102CE00006D0C01D0D4920F00700411AC1F5406112
:102CF0000B4A00230144C2E900030839103A21F0CD
:102D0000070111604B600B600B1AC0E90013936060
:102D10004FF000405360D060704700008C0D0020E1
:102D200074000020144E154CA6F1C8074FF08058CF
:102D3000DFF84C9012E000BF00F084F9F068C5683D
:102D4000281D00F02FF92069401E2061E068401E18
:102D5000E06000F097F92846FFF7A4FFE06800283C
:102D6000EAD138680128F9D9C9F80080BFF34F8F3C
:102D7000BFF36F8FF2E70000640D002028000020F1
:102D800004ED00E02DE9F0479A46DDE9098481462B
:102D90006FF00303206B03EB82021044089D20F0C8
:102DA0000706700707D0502080F31188BFF34F8FBC
:102DB000BFF36F8FFEE723180A5C83F834200A5CA8
:102DC00012B1401C1028F6D3002784F84370072D59
:102DD00000D30625E562C4E91157201D00F00BF968
:102DE00004F1180000F007F92461C5F107006462DE
:102DF000A061E76484F8507052464946304600F0BE
:102E0000BFF82060B8F1000F01D0C8F80040BDE85D
:102E1000F087000030B5114900E011460A6882428F
:102E2000FBD34B685C18844203D140681844486067
:102E3000084643681C18944209D1084C103C246889
:102E4000A24209D052681A4442600A6812680260BD
:102E5000814200D0086030BD0460F9E774000020B2
:102E600006484168096829B14168C968C968496864
:102E7000016370474FF0FF31FAE70000280000209F
:102E800008484068401C4FF0500080F3118804D07F
:102E9000BFF34F8FBFF36F8FFEE7BFF34F8FBFF3CB
:102EA0006F8FFEE77C0000202DE9F04105460027EA
:102EB00000F098F9314E306808B9FFF70DFFF0685F
:102EC00005424BD1C5B3083568070ED005F00700A1
:102ED000C0F108000544680707D0502080F311882E
:102EE000BFF34F8FBFF36F8FFEE72DB3706885423E
:102EF00034D82248103001460C6801E020460C46C8
:102F00006168A94202D221680029F7D131688C4258
:102F100024D007682168016060680837411B1029C8
:102F20000FD96019420708D0502080F31188BFF3F1
:102F30004F8FBFF36F8FFEE710E041606560FFF7D2
:102F400069FF61687068401A7060B268904200D290
:102F5000B060F06801430020C4E9000100F088FA85
:102F6000780707D0502080F31188BFF34F8FBFF34D
:102F70006F8FFEE73846BDE8F08100006400002056
:102F800010B5031F4FF080741C601B1F21F001015E
:102F90001960191F024B0B60143940380A6010BDCC
:102FA000812E0008D0E9013201699A60D0E901233D
:102FB0005A604A68824201D182684A6000220261F6
:102FC0000868401E0860086870470000034B0360F3
:102FD00003F1540008608020106070474009002011
:102FE00000F108014FF0FF32C0E90112C160016138
:102FF00000210160704700210161704730B50B6806
:103000005A1C02D000F1080202E0026904E02246E4
:10301000546825689D42FAD953684B6099608A606C
:10302000516008610168491C016030BD42684A6016
:1030300093688B6093685960916008610168491CCE
:1030400001607047502080F31188BFF34F8FBFF3AA
:103050006F8F0A494868401C486001280CD1084815
:10306000006810F0FF0F07D0502080F31188BFF3E5
:103070004F8FBFF36F8FFEE7704700007C0000208A
:1030800004ED00E00849486828B1401E486001D1BD
:1030900080F311887047502080F31188BFF34F8F61
:1030A000BFF36F8FFEE700007C00002070B50028A2
:1030B00027D0144DA0F108046168E868014207D1E7
:1030C000502080F31188BFF34F8FBFF36F8FFEE75F
:1030D00022683AB1502080F31188BFF34F8FBFF3BD
:1030E0006F8FFEE78143616000F07CF8606869687B
:1030F000084468602046FFF78DFEBDE8704000F090
:10310000B7B970BD640000204FF0E02000210161DC
:10311000816105494FF47A720968B1FBF2F1491EE9
:1031200041610721016170471800002010B50200BD
:1031300014D00F48806B38B1502080F31188BFF352
:103140004F8FBFF36F8FFEE700F04CF80021104661
:10315000FFF708FD00F08CF9002807D105494FF072
:1031600080500860BFF34F8FBFF36F8F10BD00001A
:103170002800002004ED00E010B586B00024039480
:1031800005AA04A903A80494FFF720FFDDE90301C1
:103190000094CDE9011000230EA11048059A00F01B
:1031A000D8F80F490028486311D0502080F31188C7
:1031B000BFF34F8FBFF36F8F4FF0FF3008630120D5
:1031C000C8614C6106B0BDE8104000F041B806B0DF
:1031D00010BD000049444C4500000000252D0008AA
:1031E000280000200248816B491C81637047000061
:1031F000280000201448816B11B101214162704701
:10320000002141628169B1FA81F1C1F11F0101EB35
:1032100081020E4951F822306BB101EB820101F1BC
:1032200008034A6852684A609A4201D152684A606B
:10323000D16801607047502080F31188BFF34F8F31
:10324000BFF36F8FFEE70000280000209C0C0020D9
:103250001CB5264908780190FF20087008788DF881
:1032600000009DF800009DF8002000F0F000904262
:1032700007D0502080F31188BFF34F8FBFF36F8FBB
:10328000FEE79DF800001A4B00F050001870072070
:10329000986005E09DF8002052008DF80020401E47
:1032A0009DF800201206F5D49860032807D050201E
:1032B00080F31188BFF34F8FBFF36F8FFEE74FF49A
:1032C00040709860019808700A48016841F47001E4
:1032D0000160016841F070410160FFF715FF0020B7
:1032E0005860FCF71FFF00201CBD000000E400E058
:1032F0007C00002020ED00E02DE9FF5F8346DDE942
:103300000E87994616468A469000FFF7CDFD0500C8
:103310001CD05420FFF7C8FD040014D00020256302
:1033200084F85100CDE90240CDE900874B46324692
:1033300051465846FFF726FD2046FFF74BFC01207B
:1033400004B0BDE8F09F2846FFF7B0FE4FF0FF3015
:10335000F6E7F0B585B0DDE90B640A9DA6B1DCB1F6
:10336000542700972663022684F85160002604AF94
:10337000CDE90246CDE90057FFF704FD2046FFF7EF
:1033800029FC049805B0F0BD502080F31188BFF3EC
:103390004F8FBFF36F8FFEE7502080F31188BFF38C
:1033A0004F8FBFF36F8FFEE72DE9F0412E4C0027C2
:1033B000A06B40B1206A401C2062606A00B1012706
:1033C0003846BDE8F0816669761C666113D1606895
:1033D000006838B1502080F31188BFF34F8FBFF3DE
:1033E0006F8FFEE76068A1686160A060A06A401C02
:1033F000A062FFF735FD206BDFF87080864209D3AD
:103400006068006880B16068C068C56868688642A6
:103410000DD220632068C06A00EB800158F82100BB
:103420000128CAD90127C8E74FF0FF30F1E7281D6E
:10343000FFF7B8FDA86A18B105F11800FFF7B2FD53
:10344000E86A0121A26981401143A16100EB80017A
:1034500008EB8100291DFFF7E9FDE86A2168C96AC8
:103460008842CDD30127CBE7280000209C0C002008
:103470002DE9F0472C4D00242746A86B38B1FFF703
:10348000E1FDA86B401EA863A86B40B146E0502048
:1034900080F31188BFF34F8FBFF36F8FFEE7296969
:1034A000224E0120D1B3A6F1B40980463068E8B1BC
:1034B000F068C46804F11800FFF774FD201DFFF7E1
:1034C00071FDE06AAA6908FA00F11143A96100EBF5
:1034D000800109EB8100211DFFF7A8FDE06A296842
:1034E000C96A8842E2D3C5F82480DFE70CB1FFF750
:1034F000B7FC2C6A44B14646FFF756FF00B16E6236
:10350000641EF9D100202862686A38B10849012791
:1035100038070860BFF34F8FBFF36F8FFFF7B2FD1F
:103520003846BDE8F087000028000020500D00203C
:1035300004ED00E018360008B12300080000000088
:1035400000000000800000000000000000000000FB
:103550000C3600083D240008FDFF000000000000BC
:1035600080000000000000000000000000000000DB
:103570000000000001020304060708090000000023
:10358000010203040040404040404040404041416F
:103590004141414040404040404040404040404028
:1035A00040404040400502020202020202020202C2
:1035B00002020202022020202020202020202002BF
:1035C000020202020202909090909090101010104F
:1035D00010101010101010101010101010101010EB
:1035E000020202020202888888888888080808087F
:1035F000080808080808080808080808080808084B
:103600000202020240000000853500086D79546115
:10361000736B30320000000064656661756C745431
:1036200061736B0044360008000000209400000025
:10363000AC280008D836000894000020FC1C0000CC
:10364000BC2800080000000000000000000000008E
:103650000000000000000000000000000024F40052
:103660000100000010000000000000000000000049
:10367000000000000000000000000000000000004A
:10368000000000000000000000000000000000003A
:10369000000000000000000000000000000000002A
:1036A000000000000000000000000000000000001A
:1036B000000000000000000000000000000000000A
:1036C00000000000AAAAAAAA000000000000000052
:0836D0000000000000000000F2
:04000005080000ED02
:00000001FF
